:020000040000fa
:080000000002040000000000f2
:020000040000fa
:100400008f8020000edf20000e0188000000000019
:100410000c000700605420000100200011000700bc
:10042000000020000000e000020032000000020096
:10043000000000007c040200000000000040da0020
:100440000000fe004440a900600120000000e00020
:100450000300320000002000a00188004440a800f2
:100460000000060091018800800078000000eb0089
:1004700015003700e280400032a0b4009101ba00bc
:10048000e280400032a0b4009102ba00e280400055
:1004900032a0b4000002eb00472bde00f507b200eb
:1004a000602ce10004003a000059eb008301e900f0
:1004b000fdff3e00040037006128e100010032002a
:1004c0000082eb00040007001101ba000200e00006
:1004d000e8ff3a00000006003159ba008301e90044
:1004e0000c0032002159ba008301e90008003200f3
:1004f0000400e00003003a00e280400032a0b400b3
:10050000f5ff370011d9ba008301e900faff3a007c
:100510008100e800e180400032a0b4000000060045
:080520000040da000000fe00bb
:020000040000fa
:0200000401f009
:04000800ffff0000f6
:020000040000fa
:0200000401f009
:04000c007aff000077
:020000040000fa
:0200000401f009
:04001000baff000033
:020000040000fa
:0200000401f009
:040014007fff00006a
:020000040000fa
:0200000401f009
:04001800f6ff0000ef
:020000040000fa
:0200000401f009
:040020007fff00005e
:020000040000fa
:1000080090020000900200009002000090020000a0
:100018009002000090020000900200009002000090
:100028009002000090020000900200008604000088
:100038009002000090020000900200009002000070
:100048009002000090020000900200009002000060
:100058009002000090020000900200009002000050
:100068009002000090020000900200009002000040
:100078009002000090020000900200009002000030
:100088009002000090020000900200009002000020
:100098009002000090020000900200009002000010
:1000a8009002000090020000900200009002000000
:1000b80090020000900200009002000090020000f0
:1000c80090020000900200009002000090020000e0
:1000d80090020000900200009002000090020000d0
:1000e80090020000900200009002000090020000c0
:1000f80090020000900200009002000090020000b0
:10010800900200009002000090020000900200009f
:10011800900200009002000090020000900200008f
:10012800900200009002000090020000900200007f
:10013800900200009002000090020000900200006f
:10014800900200009002000090020000900200005f
:10015800900200009002000090020000900200004f
:10016800900200009002000090020000900200003f
:10017800900200009002000090020000900200002f
:10018800900200009002000090020000900200001f
:10019800900200009002000090020000900200000f
:1001a80090020000900200009002000090020000ff
:1001b80090020000900200009002000090020000ef
:1001c80090020000900200009002000090020000df
:1001d80090020000900200009002000090020000cf
:1001e80090020000900200009002000090020000bf
:0801f8009002000090020000db
:020000040000fa
:10020800900200009002000090020000900200009e
:10021800900200009002000090020000900200008e
:100228009002000090020000900200008604000086
:10023800900200009002000090020000900200006e
:10024800900200009002000090020000900200005e
:10025800900200009002000090020000900200004e
:10026800900200009002000090020000900200003e
:10027800900200009002000090020000900200002e
:10028800900200009002000090020000900200001e
:10029800900200009002000090020000900200000e
:1002a80090020000900200009002000090020000fe
:1002b80090020000900200009002000090020000ee
:1002c80090020000900200009002000090020000de
:1002d80090020000900200009002000090020000ce
:1002e80090020000900200009002000090020000be
:1002f80090020000900200009002000090020000ae
:10030800900200009002000090020000900200009d
:10031800900200009002000090020000900200008d
:10032800900200009002000090020000900200007d
:10033800900200009002000090020000900200006d
:10034800900200009002000090020000900200005d
:10035800900200009002000090020000900200004d
:10036800900200009002000090020000900200003d
:10037800900200009002000090020000900200002d
:10038800900200009002000090020000900200001d
:10039800900200009002000090020000900200000d
:1003a80090020000900200009002000090020000fd
:1003b80090020000900200009002000090020000ed
:1003c80090020000900200009002000090020000dd
:1003d80090020000900200009002000090020000cd
:1003e80090020000900200009002000090020000bd
:0803f8009002000090020000d9
:020000040000fa
:1005280000010000000200000004000000080000b4
:1005380000100000002000003f0600005b4f000094
:0c054800666d00007d0700007f6700006a
:020000040000fa
:100554000000fa000000eb0040168800c002a90069
:10056400c402a9000040eb0000e8b7000040eb0023
:1005740001e8b7000040eb0002e8b70060000700a4
:1005840031000700020007000080fa0000000600a6
:100594000200fa000040eb00004f780000c8bf00e2
:1005a4000080fb0042062000110009000280d800f0
:1005b4008000fd000080fb00a20020001100090063
:1005c4000280d8008000fd000080fb00800007004e
:1005d400004f7800a11484001e80fb00008070008e
:1005e4006016880000092d00310020001801070062
:1005f40000c8bf000080fb00420620001100090073
:100604000280d8008000fd000080fb00a2002000d2
:10061400110009000280d8000080fb006c00070074
:10062400004f7800b11484001e80fb00008070002d
:100634006016880000092d00310020000401070025
:100644000080fa00000006000200fa000040eb00ff
:10065400004f780001c8bf000080fb004206200064
:10066400110009000280d8008000fd000080fb001a
:10067400a2002000110009000280d8008000fd00c3
:100684000080fb0052000700004f7800c114840072
:100694001e80fb00008070006016880000092d0099
:1006a40031002000ea00070001c8bf000080fb0001
:1006b40042062000110009000280d8008000fd00dd
:1006c4000080fb00a2002000110009000280d80075
:1006d4000080fb003e000700004f7800d114840026
:1006e4001e80fb00008070006016880000092d0049
:1006f40031002000d60007000080fa000000060048
:100704000200fa000040eb00004f780002c8bf006e
:100714000080fb0042062000110009000280d8007e
:100724008000fd000080fb00a200200011000900f1
:100734000280d8008000fd000080fb002400070038
:10074400004f7800e11484001e80fb0000807000dc
:100754006016880000092d0031002000bc0007004d
:1007640002c8bf000080fb004206200011000900ff
:100774000280d8008000fd000080fb00a200200061
:10078400110009000280d8000080fb00100007005f
:10079400004f7800f11484001e80fb00008070007c
:1007a4006016880000092d0031002000a800070011
:1007b4000080fa00000006000000fa0074ff070041
:1007c400a1ff0700ceff07000080fa00000006002a
:1007d4000600fa00000f78001e0078006101b800de
:1007e40012079800230798009000200001002000c1
:1007f4001e019000ae019000800f5100818f5900be
:1008040035003e001e009000ae0090000060010024
:10081400090037000c0037000f00370012003700c2
:1008240015003700180037001b0037001e00370082
:100834002100370024003700002a280010407800e7
:1008440004e8b70027003700102a28001040780079
:1008540004e8b70023003700202a2800104078005d
:1008640004e8b7001f003700302a28001040780041
:1008740004e8b7001b003700402a28001040780025
:1008840004e8b70017003700502a28001040780009
:1008940004e8b70013003700602a280010407800ed
:1008a40004e8b7000f003700702a280010407800d1
:1008b40004e8b7000b003700802a280010407800b5
:1008c40004e8b70007003700902a28001040780099
:1008d40004e8b70003003700002a2800104078001d
:1008e40004e8b70004c8bf000080fb000080fa00e1
:1008f400000006000000fa0015ff07003d00070095
:10090400adff0700feff370000a0fe003400f80032
:10091400881f780008002000a80188004f04780090
:100924000000fa00c4c2bf006140600000c0ea00d9
:100934006140600061416000412c200091407800da
:10094400e0cfb30000c0600002407000c4e2b70012
:1009540006c8bf00e24f500005003a000040eb001b
:1009640006e8b70000c8bf000040e80000e8b70090
:1009740006c8bf000040e80006e8b7000180200078
:1009840091407800b0c3b30080cf5000050036001a
:100994000040eb0000e8b70001c8bf000040e800d9
:1009a40001e8b7001180200091407800b0c3b30083
:1009b40080cf5000050036000040eb0001e8b7008e
:1009c40002c8bf000040e80002e8b70002c8bf0048
:1009d400f84f5000020036000040eb0002e8b70078
:1009e4008460a9000080fa003400f9000080fe0051
:1009f400004006000000fa000000eb002008880018
:100a0400411020009140780000c3b30000c0700082
:100a140004e1b7000000eb000008880040622200f7
:100a240010088800510a200091407800f0c8b300f3
:100a340000c060000044a000a5e0b7008460a900e5
:100a44009460a80005e1a8000080fa0000000600f8
:020000040000fa
:100a5400f03fb1000180b10006003500ee0309004b
:100a640000000000403fb1000180b100fbff3d00e9
:100a74001000b000203fb0000200350000800900e3
:080a8400000000000000060064
:020000040000fa
:100a8c000408000002000000000000000008000044
:100a9c000400000000000000060800000200000036
:080aac00000000000000000042
:00000001FF
